:020000040000FA
:06000000E3EF16F0120010
:0600080004EF08F01200F5
:060018000CEF08F01200DD
:06100000E3EF16F0120000
:061008008DEF10F0120054
:0610180063EF11F012006D
:02102A000000C4
:04102C00D9CFE6FF33
:10103000E1CFD9FFE6526A6A686A160E6F6E9F0E9C
:101040006B6E7B0E696E6D8C6E6A030EE66EE66AE1
:10105000E66A710EE66E0F0EE66EA3EC16F0106EE9
:10106000050EE15E10506D9CDF6ADF50106E116A54
:10107000100E105C000E115810E2DF50040DF3CF7B
:10108000E9FFF4CFEAFF000EE926040EEA22EE6A39
:10109000EE6AEE6AEE6ADF2AE8D7160E706E68A670
:1010A00002D06896FCD701011B6B206B216B226B71
:1010B0006D98080E0F6F040E106F016B006BE552F8
:1010C000E552E7CFD9FF1200D9CFE6FFE1CFD9FF34
:1010D000E6520101000507E16DBA05D0686A698032
:1010E0006988020E006F6850040B05E06950040B1C
:1010F00002E06894B6D86DA202D0A19A82D068505E
:10110000010B12E06950010B0FE090DF0101040EAA
:10111000006F0401400E026F040E036F080E016F92
:10112000006B8C0E001368906850100B05E069503E
:10113000100B02E084D868986850400B13E06950A7
:10114000400B10E0010EE66EE66A000EE66EE66AFF
:10115000730EE66EE66A70EC13F0106E060EE15E3A
:101160001050689C6850200B04E06950200B01E08F
:101170004DD86850020B13E06950020B10E0010ECD
:10118000E66EE66A000EE66EE66AE6687F0EE66EDA
:1011900070EC13F0106E060EE15E10506A6A040ED9
:1011A0000101E76E0019E8AE02D0E73402D0E75043
:1011B000005D02E2A19A25D069A622D0DF6A040E62
:1011C000DF5C1EE268A61BD06CCF28F16896780E13
:1011D0000101281502E15AD810D0000EE66EE66A29
:1011E000280EE66E010EE66E720EE66EE66A70EC92
:1011F00013F0106E060EE15E1050DF2AE0D700D02B
:10120000A19AE552E552E7CFD9FF120070A015D0A0
:1012100003C1E9FF04C1EAFFEF5080080DE10FC1EF
:10122000E9FF10C1EAFFEF50840806E103C1E9FFBE
:1012300004C1EAFF8C0EEF6E7090689A1200698408
:1012400068986D82000EE66EE66AE66EE66A750ED6
:10125000E66EE66A70EC13F0106E060EE15E10505A
:101260001200000EE66EE66AE66EE66A740EE66E40
:10127000E66A70EC13F0106E060EE15E10506D928F
:10128000699468A402D06894FCD71200D9CFE6FF15
:10129000E1CFD9FFE652FD0E010128155AE17E0E7D
:1012A0002815E8407F0B040DF3CF03F1F4CF04F1D0
:1012B000000E0327040E042303C105F104C106F147
:1012C000057503C1E9FF04C1EAFFEF503C0BE8429A
:1012D000E8420D083CE103C1E9FF04C1EAFF020E48
:1012E000E926000EEA22EECF10F0EFCF11F0480E03
:1012F000101802E1040E111828E103C1E9FF04C12E
:10130000EAFF020EE926000EEA22400EEE6E040EFF
:10131000ED6EDF6ADF50106E116A080E105C000E71
:10132000115813E2DF50EA6A480FE96E040EEA2210
:10133000EF50E66EDF50EA6A400FE96E040EEA22D3
:10134000E552E750EF6EDF2AE5D70DD801D02ED851
:1013500005D0FD0E2815040801E14ED8E552E552EE
:10136000E7CFD9FF12000FC1E9FF10C1EAFFEF502C
:10137000800B05E00FC1E9FF10C1EAFFEF6A010130
:10138000176B186B1C6B1D6B1B6BB6D8000EE66ED3
:10139000E66AE66EE66A030EE66EE66A70EC13F045
:1013A000106E060EE15E105027EF0CF0020E0101E8
:1013B000185D02E1ACDB1FD06CD8010129511AE1A4
:1013C00005C1E9FF06C1EAFFEE52080EEF6E05C146
:1013D000E9FF06C1EAFF020EE926000EEA22400EEE
:1013E000EE6E040EED6E05C1E9FF06C1EAFF8C0E3C
:1013F000EF6E01D0296B1200D9CFE6FFE1CFD9FF04
:10140000E6520FC1E9FF10C1EAFFEF50400B01E0C7
:10141000010EDF6E01010F75080E005D0AE142C486
:101420006EFF6E50000803E2100E006F02D0040E33
:10143000006F180528E10FC1E9FF10C1EAFF020E95
:10144000E926000EEA22480EEE6E040EED6ED4DAA6
:10145000020E0101175D07E10FC1E9FF10C1EAFFAC
:10146000840EEF6E0FD0DF5007E10FC1E9FF10C10E
:10147000EAFFC80EEF6E06D00FC1E9FF10C1EAFF08
:10148000880EEF6E01D005D8E552E552E7CFD9FFBF
:101490001200D9CFE6FFE1CFD9FF020EE12601010C
:1014A000186B0FC1E9FF10C1EAFFEF6A040E0F19B4
:1014B000106E10C111F010C0DEFF11C0DDFFDECFD5
:1014C000E9FFDDCFEAFFEF6A20AF0CD023512411F2
:1014D00007E005D024C1FAFF01012351F96EFADFBC
:1014E0000101209F020EE15C02E2E16AE552E16E39
:1014F000E552E7CFD9FF120004014051600BE842EA
:10150000E842E842E842E842000901E058D041518F
:101510000C0A54E00B0A43E00C0A35E0010A26E00D
:101520000B0A22E0020A20E0030A1CE0080A10E08D
:10153000010A0CE00F0A08E0030A01E03FD00101B4
:101540001B8F080E006F3BD0C7D839D07EDB37D059
:101550000101010E196F010E1A6F1B81010E1C6F24
:101560001B8F2DD013D92BD02BD829D0445101015A
:10157000196F1A6B020E1927010E1A231B81010E17
:101580001C6F1B8F1CD001011B8F04014451EA6AA0
:10159000020FE96E010EEA2242C4EFFF10D0000EE6
:1015A000E66EE66AE66EE66A020EE66EE66A70ECE3
:1015B00013F0106E060EE15E105001D000D0120044
:1015C000D9CFE6FFE1CFD9FF040EE12604014205A1
:1015D00010E140511F0B00090CE101011B8F030EAC
:1015E0000401415D04E10101010E276F02D00101F8
:1015F000276B0401425166E140511F0B020862E172
:1016000044510F0B00095EE001011B8F040144BF30
:1016100010D044510F0BE96EEA6AD890E936EA36E9
:10162000070EE926010EEA22EECFDEFFEDCFDDFF49
:101630000FD044510F0BE96EEA6AD890E936EA36CA
:101640000F0EE926010EEA22EECFDEFFEDCFDDFF21
:10165000030E415D07E1DECFE9FFDDCFEAFF840E37
:10166000EF6E30D044510F0B116A700F106E0F0ED9
:101670001122020E10C0DBFF030E11C0DBFF020EB1
:10168000DBCFE9FF030EDBCFEAFFEF9044AF0DD0D5
:10169000DECFE9FFDDCFEAFFEF6ADF74DECFE9FFDF
:1016A000DDCFEAFF400EEF6E0DD0DECFE9FFDDCFDC
:1016B000EAFF880EEF6EDF74DECFE9FFDDCFEAFFD1
:1016C000C80EEF6E040EE15C02E2E16AE552E16EE3
:1016D000E552E7CFD9FF1200800E0401405D55E1CD
:1016E0000101C00E1B6F04014351030A2EE0010AE1
:1016F0000EE0030A03E001011B6B47D00101DE0E7F
:10170000196F2B0E1A6F120E1C6F1D6B3ED04251BB
:10171000F66EF76AD890F636F7369F0EF6262C0E40
:10172000F7220900F5CF19F10A00F5CF1AF1020EE0
:101730000101F76A1925F66E1A51F7220900F5CF53
:101740001CF10A00F5CF1DF120D0030E425D1AE214
:101750004251F66EF76AD890F636F736A10EF626A5
:101760002C0EF7220900F5CF19F10A00F5CF1AF176
:1017700019C1F6FF1AC1F7FF0800F55001011C6FEF
:101780001D6B02D001011B6B00D01200D9CFE6FF08
:10179000E1CFD9FF020EE1260401486B496B4051AD
:1017A0001F0B020A12E0030A0DE0010A01E03BD020
:1017B00001011B8F040148810101270502E1040199
:1017C000488331D001011B8F2ED001011B8F0401F2
:1017D00044BF10D044510F0BE96EEA6AD890E93645
:1017E000EA36070EE926010EEA22EECFDEFFEDCF44
:1017F000DDFF0FD044510F0BE96EEA6AD890E9364D
:10180000EA360F0EE926010EEA22EECFDEFFEDCF1B
:10181000DDFFDECFE9FFDDCFEAFFEF50040B02E092
:10182000010E486F00D001011BAF07D0480E196FA1
:10183000040E1A6F1B81020E1C6F020EE15C02E2A5
:10184000E16AE552E16EE552E7CFD9FF12006D98EB
:1018500001011BBF4AD020AF28D0020E186F0FC164
:10186000E9FF10C1EAFFEE52EF6A0FC1E9FF10C1B4
:10187000EAFFC80EEF6E05C1E9FF06C1EAFFEE52AE
:10188000080EEF6E05C1E9FF06C1EAFF020EE92668
:10189000000EEA22480EEE6E040EED6E05C1E9FF61
:1018A00006C1EAFFC80EEF6E1FD005C1E9FF06C1F1
:1018B000EAFFEE52080EEF6E05C1E9FF06C1EAFF2E
:1018C000020EE926000EEA22400EEE6E040EED6EC8
:1018D00005C1E9FF06C1EAFF8C0EEF6E0FC1E9FFFB
:1018E00010C1EAFF840EEF6E86D020BF84D00401C1
:1018F00040AF59D001011C510401465D01011D5149
:101900000401475904E246C41CF147C41DF174D8D0
:101910000101010E186F05C1E9FF06C1EAFFEE5291
:10192000080EEF6E05C1E9FF06C1EAFF020EE926C7
:10193000000EEA22400EEE6E040EED6E05C1E9FFC8
:1019400006C1EAFF800EEF6E296B03C1E9FF04C1F7
:10195000EAFFEE52080EEF6E03C1E9FF04C1EAFF91
:10196000020EE926000EEA22400EEE6E040EED6E27
:1019700003C1E9FF04C1EAFF840EEF6E010E296F77
:101980000FC1E9FF10C1EAFF020EE926000EEA22AC
:10199000480EEE6E040EED6E0FC1E9FF10C1EAFFB6
:1019A000C80EEF6E28D00101020E186F0FC1E9FFBB
:1019B00010C1EAFFEE52EF6A0FC1E9FF10C1EAFF62
:1019C000C80EEF6E05C1E9FF06C1EAFFEE52080E30
:1019D000EF6E05C1E9FF06C1EAFF020EE926000E1F
:1019E000EA22480EEE6E040EED6E05C1E9FF06C157
:1019F000EAFFC80EEF6E1200D9CFE6FFE1CFD9FFA4
:101A0000020EE1260101080E1C5D000E1D590EE2BA
:101A10001CC1DEFF1DC1DDFF175103E1010E176F71
:101A200004D0170502E1020E176F03D0080EDE6E18
:101A3000DD6A0FC1E9FF10C1EAFFEF920FC1E9FFB4
:101A400010C1EAFFEF900FC1E9FF10C1EAFF010EDC
:101A5000DB50EF120FC1E9FF10C1EAFFEE52DFCFFA
:101A6000EFFF000EDB501C5F010EDB501D5B480ECC
:101A7000256F040E266F1BB121D0D9CFE9FFDACF35
:101A8000EAFFEE50ED1019E019C1F6FF1AC1F7FF99
:101A9000192B000E1A230800F550E66E25C1E9FF48
:101AA00026C1EAFF252B000E2623E552E750EF6EF4
:101AB000DF06010E01E2DB06E0D71FD0D9CFE9FF38
:101AC000DACFEAFFEE50ED1018E019C1E9FF1AC1B4
:101AD000EAFF192B000E1A23EF50E66E25C1E9FF2D
:101AE00026C1EAFF252B000E2623E552E750EF6EB4
:101AF000DF06010E01E2DB06E1D7020EE15C02E245
:101B0000E16AE552E16EE552E7CFD9FF1200D9CF85
:101B1000E6FFE1CFD9FF020EE12603C1E9FF04C1D0
:101B2000EAFFEE52EFCFDFFFDFCF10F010500101E0
:101B3000215D000E225903E221C1DFFF09D0DF50F1
:101B4000106E116A1050215D216F11502259226FC1
:101B5000010EDB6ADF50F36E010EDBCFF4FFF350B2
:101B6000F45C16E2010EDB50EA6A480FE96E040EDF
:101B7000EA22EF50E66E1EC1E9FF1FC1EAFF1E2BED
:101B8000000E1F23E552E750EF6E010EDB2AE2D76D
:101B9000000ED8802155000E225528E205C1E9FF2C
:101BA00006C1EAFFEE52080EEF6E05C1E9FF06C15D
:101BB000EAFF020EE926000EEA22480EEE6E040E3F
:101BC000ED6E03C1E9FF04C1EAFFEF50400B07E1EE
:101BD00005C1E9FF06C1EAFFC80EEF6E06D005C1D8
:101BE000E9FF06C1EAFF880EEF6E25D005C1E9FFC7
:101BF00006C1EAFFEE52080EEF6E05C1E9FF06C10D
:101C0000EAFF020EE926000EEA22400EEE6E040EF6
:101C1000ED6E05C1E9FF06C1EAFF840EEF6E2351A8
:101C2000241107E005D024C1FAFF01012351F96E08
:101C3000FADF0101209F020EE15C02E2E16AE55257
:101C4000E16EE552E7CFD9FF1200D9CFE6FFE1CF31
:101C5000D9FFE65201011B8F030EE66EE66AE66AC3
:101C6000710EE66E0F0EE66EA3EC16F0106E050E0A
:101C7000E15E1050DF6ADF50106E116A100E105CCA
:101C8000000E115810E2DF50040DF3CFE9FFF4CF3E
:101C9000EAFF000EE926040EEA22EE6AEE6AEE6A18
:101CA000EE6ADF2AE8D76D8C010EE66EE66AE66A18
:101CB000020EE66E010EE66EA3EC16F0106E050E37
:101CC000E15E10506D9C0101080E0F6F040E106F45
:101CD000000E036F040E046F03C105F104C106F189
:101CE00042C401F1015103E1100E006F12D0200E29
:101CF000006F010EE66EE66A010EE66E010EE66EFC
:101D0000010EE66EE66A70EC13F0106E060EE15EF0
:101D10001050E552E552E7CFD9FF1200D9CFE6FFC8
:101D2000E1CFD9FF020EE126000EDE6E040EDD6E5D
:101D3000FD0EDB50E824126EFE0EDB50040DF35056
:101D40001224040DF350106E116A020E0F0B05E001
:101D5000D89011321032E806FBE1D89010361136D7
:101D6000D89010361136D9CFE9FFDACFEAFF1050FC
:101D7000EE261150ED22DECFE9FFDDCFEAFFEF9E28
:101D8000FD0EDB500FE1FE0EEA6ADB34FE0BEA3695
:101D9000E96E070EE926010EEA22DECFEEFFDDCF67
:101DA000EDFF0ED0FE0EEA6ADB34FE0BEA36E96E7A
:101DB0000F0EE926010EEA22DECFEEFFDDCFEDFFAA
:101DC000DECFE9FFDDCFEAFFEF9CDECFE9FFDDCF1D
:101DD000EAFF040EE926000EEA22EF8C020EE15C17
:101DE00002E2E16AE552E16EE552E7CFD9FF120067
:101DF000D9CFE6FFE1CFD9FF020EE126FE0EDB5080
:101E0000116A700F106E0F0E112210C0DEFF11C08C
:101E1000DDFFDECFE9FFDDCFEAFFFD0EDBCFEFFF19
:101E2000DBA407D0E66AFE0EDBCFE6FF77DFE552E4
:101E3000E552FD0EDBA208D0010EE66EFE0EDBCFF2
:101E4000E6FF6CDFE552E552020EE15C02E2E16A78
:101E5000E552E16EE552E7CFD9FF1200D9CFE6FF98
:101E6000E1CFD9FF020EE126FE0EDB5020E105C1D5
:101E7000E9FF06C1EAFFEE52080EEF6E05C1E9FF69
:101E800006C1EAFF020EE926000EEA22400EEE6EBF
:101E9000040EED6E05C1E9FF06C1EAFF8C0EEF6E80
:101EA0000FC1E9FF10C1EAFF840EEF6E3DD0FD0EB9
:101EB000DB50E824126EFE0EDB50040DF3501224AA
:101EC000040DF3CF10F0F4CF11F0000E1026040E25
:101ED000112210C0DEFF11C0DDFF840E106EDECFB8
:101EE000E9FFDDCFEAFF1050EF12FD0EDB50E824D2
:101EF000126EFE0EDB50040DF3501224010F040D80
:101F0000F3CF10F0F4CF11F0000E1026040E1122C2
:101F100010C0DEFF11C0DDFF840E106EDECFE9FFC2
:101F2000DDCFEAFF1050EF12020EE15C02E2E16A3F
:101F3000E552E16EE552E7CFD9FF1200D9CFE6FFB7
:101F4000E1CFD9FF020EE126FD0EDB500FE0FE0EC1
:101F5000EA6ADB34FE0BEA36E96E0F0EE926010E63
:101F6000EA22EECFDEFFEDCFDDFF0ED0FE0EEA6AF5
:101F7000DB34FE0BEA36E96E070EE926010EEA2293
:101F8000EECFDEFFEDCFDDFFDECFE9FFDDCFEAFFF5
:101F9000020EE926000EEA22FB0EDBCFEEFFFC0E5E
:101FA000DBCFEDFFDECFE9FFDDCFEAFFEE52FA0E29
:101FB000DBCFEFFF400E106EDECFE9FFDDCFEAFF93
:101FC0001050EF16880E106EDECFE9FFDDCFEAFF6E
:101FD0001050EF12FD0EDB500CE0FE0EEA6ADB340F
:101FE000FE0BEA36E96E0F0EE926010EEA22EF74C7
:101FF0000BD0FE0EEA6ADB34FE0BEA36E96E070E02
:10200000E926010EEA22EF74DECF10F0DDCF11F0E9
:1020100010C0F3FF11C0F4FF020EE15C03E200D038
:10202000E16AE552E16EE552E7CFD9FF1200D9CF60
:10203000E6FFE1CFD9FF6DA84ED0FE0EEA6ADB3491
:10204000FE0BEA36E96E0F0EE926010EEA22EE508B
:10205000EFCFEAFFE96E400EEE16EE6AEE6AEE6A28
:10206000FE0EEA6ADB34FE0BEA36E96E0F0EE92655
:10207000010EEA22EE50EFCFEAFFE96EEE7CFE0E93
:10208000EA6ADB34FE0BEA36E96E0F0EE926010E32
:10209000EA22EF74400E106EFE0EEA6ADB34FE0B8D
:1020A000EA36E96E0F0EE926010EEA22EE50EFCF76
:1020B000EAFFE96E1050EF16FE0EEA6ADB34FE0B03
:1020C000EA36E96E0F0EE926010EEA22EE50EFCF56
:1020D000EAFFE96EEF7CE552E7CFD9FF120005D0A9
:1020E0006D6A696A0101006B00D0120001010051A4
:1020F00013E16D6A696A160E6F6E9F0E6B6E7B0E32
:10210000696ED08EA28AA08AF28E6DB602D06D86DC
:0A211000FCD70101010E006F120060
:06211A00DACFE4FFE2CF82
:10212000DAFFE9CFE4FFEACFE4FFF6CFE4FFF7CF31
:10213000E4FFF5CFE4FFF3CFE4FFF4CFE4FFFACF01
:10214000E4FF00EE00F0100EE80403E3EECFE4FF3E
:10215000FBD700EE10F0030EE80403E3EECFE4FF3C
:10216000FBD7E65264EC08F0F2A406D0480ED76E16
:10217000E50ED66E8D72F294F2A281D00001E32BAF
:10218000000EE423E80E136E030E146EE3C006F097
:10219000E4C007F013C00BF014C00CF0BDEC16F057
:1021A00006C0E5F0E3C013F0E4C014F0E80E0B6ED7
:1021B000030E0C6E13C006F014C007F0BDEC16F051
:1021C00002C013F003C014F0640E0B6E0C6A13C04F
:1021D00006F014C007F0BDEC16F006C013F007C0FF
:1021E00014F013C0E6F0E3C013F0E4C014F0640E82
:1021F0000B6E0C6A13C006F014C007F0BDEC16F0AD
:1022000002C013F003C014F00A0E0B6E0C6A13C068
:1022100006F014C007F0BDEC16F006C013F007C0BE
:1022200014F013C0E7F0E3C013F0E4C014F00A0E9A
:102230000B6E0C6A13C006F014C007F0BDEC16F06C
:1022400002C013F003C014F013C0E8F0300E000118
:10225000E525E96F300EE625EA6F300EE725EB6FD6
:10226000300EE825EC6F0D0EED6FEE6BE90EE66EAD
:10227000000EE66EBAEC14F0E552E552F292E55229
:1022800000EE12F0030EE80403E3E5CFEDFFFBD709
:1022900000EE0FF0100EE80403E3E5CFEDFFFBD7EF
:1022A000E5CFFAFFE5CFF4FFE5CFF3FFE5CFF5FF8C
:1022B000E5CFF7FFE5CFF6FFE5CFEAFFE5CFE9FF92
:1022C000E5CFDAFF1100D8CFE4FFE0CFE4FFE46E02
:1022D000DACFE4FFE2CFDAFFE652E552E5CFDAFFEC
:1022E000E550E5CFE0FFE5CFD8FF100005D876EC4C
:1022F00010F026D8FED712000F0EC11202D816EF2A
:1023000008F00001E36BE46B9568848E010E936E18
:10231000816AD09E0C0E966E010E8410846E7D0E26
:102320008414846E060ED56E480ED76EE50ED66EFA
:10233000F00EF26E040EF16E800ED06ED58E12008D
:10234000D9CFE6FFE1CFD9FF100EE126E80E106EDF
:10235000030E116EE3C006F0E4C007F010C00BF0EE
:1023600011C00CF0BDEC16F00B0E06C0DBFFE3C095
:1023700010F0E4C011F0E80E0B6E030E0C6E10C0EE
:1023800006F011C007F0BDEC16F002C010F003C05B
:1023900011F0640E0B6E0C6A10C006F011C007F04D
:1023A000BDEC16F006C010F007C011F00C0E10C006
:1023B000DBFFE3C010F0E4C011F0640E0B6E0C6A9A
:1023C00010C006F011C007F0BDEC16F002C010F00E
:1023D00003C011F00A0E0B6E0C6A10C006F011C09B
:1023E00007F0BDEC16F006C010F007C011F00D0E9E
:1023F00010C0DBFFE3C010F0E4C011F00A0E0B6E5A
:102400000C6A10C006F011C007F0BDEC16F002C057
:1024100010F003C011F00E0E10C0DBFF200E010102
:10242000E76E0019E8AE02D0E73402D0E750005D55
:1024300003E36D50020B01E01BD10101375101E0B4
:1024400015D1400EE66E600EE66E000EE66E40ECB4
:1024500014F0E552E552E552DF6EDF50000801E36B
:1024600005D10F0EDB6ADF50F36E0F0EDBCFF4FFEA
:10247000F350F45C01E3FAD00F0EDB50EA6A600F10
:10248000E96E000EEA22EF50640A01E1BED0200A94
:1024900001E1BBD0270A01E181D0200A01E17ED011
:1024A000210A44E0200A42E0230A03E0200A01E076
:1024B000DAD0D5AE02D0D59E01D0D58E8D70DE5249
:1024C000530EDD6E84A006D0310EF36E020EF3CFF4
:1024D000DBFF05D0300EF36E020EF3CFDBFF84A2DC
:1024E00006D0310EF36E030EF3CFDBFF05D0300EB6
:1024F000F36E030EF3CFDBFF84A406D0310EF36E30
:10250000040EF3CFDBFF05D0300EF36E040EF3CFD5
:10251000DBFF050EDB6AD950010FE66E000EDA20F4
:10252000E66EBAEC14F0E552E5529DD08D72DE52A3
:10253000530EDD6E84A006D0310EF36E020EF3CF83
:10254000DBFF05D0300EF36E020EF3CFDBFF84A26B
:1025500006D0310EF36E030EF3CFDBFF05D0300E45
:10256000F36E030EF3CFDBFF84A406D0310EF36EBF
:10257000040EF3CFDBFF05D0300EF36E040EF3CF65
:10258000DBFF050EDB6AD950010FE66E000EDA2084
:10259000E66EBAEC14F0E552E55265D0DE52530E09
:1025A000DD6E84A006D0310EF36E020EF3CFDBFF9A
:1025B00005D0300EF36E020EF3CFDBFF84A206D0FF
:1025C000310EF36E030EF3CFDBFF05D0300EF36E4A
:1025D000030EF3CFDBFF84A406D0310EF36E040E9E
:1025E000F3CFDBFF05D0300EF36E040EF3CFDBFF2D
:1025F000050EDB6AD950010FE66E000EDA20E66E9A
:10260000BAEC14F0E552E5522ED00B0EDB50300F31
:10261000E76E010EE7CFDBFF0C0EDB50300FE76EED
:10262000020EE7CFDBFF0D0EDB50300FE76E030E1F
:10263000E7CFDBFF0E0EDB50300FE76E040EE7CF67
:10264000DBFF0D0EF36E050EF3CFDBFF060EDB6A2C
:10265000D950010FE66E000EDA20E66EBAEC14F0E7
:10266000E552E55200D00F0EDB2AFDD645EC15F001
:10267000100EE15C02E2E16AE552E16EE552E7CF5D
:10268000D9FF1200120012008150100B01E0010E60
:102690000001E15D0DE1E25102E0E20708D0815066
:1026A000100B100A01E0010EE16F640EE26F03D01F
:1026B000E25101E0E20712001200BBEF13F012003A
:1026C0000CEF14F06D840001080EEF6F070EF06F31
:1026D000EF07000EF05BEF51F011FAE16D9412007C
:1026E000D9CFE6FFE1CFD9FFFD0EDBCF06F0FE0E1E
:1026F000DBCF07F0720E061801E1075033E0E868FF
:10270000061802E17F0E07182BE0740E061801E18F
:10271000075024E0750E061801E107501DE0730E06
:10272000061801E1075016E0030E061801E10750F4
:102730000FE0020E061801E1075008E0010E06182E
:1027400001E1075001E010D0BBDF0FD0B8DF0DD0A2
:10275000B4DF0BD099DF09D095DF07D094DF05D027
:10276000ABDF03D0000001D000D0010E00D0E55255
:06277000E7CFD9FF1200C3
:0A277600040140511F0B010801E0AF
:102780004AD04051600BE842E842E842E842E84261
:10279000010801E040D0445103E0440501E03BD092
:1027A0004151220A33E0030A26E0010A17E0210A18
:1027B0000EE0010A01E02FD00101470E196F010E52
:1027C0001A6F080E1C6F1D6B1B811B8F24D001011B
:1027D000470E196F010E1A6F1B8F1DD046C421F1D1
:1027E00047C422F10101880E1E6F050E1F6F236B77
:1027F000246B208F10D00101880E196F050E1A6FFF
:10280000070E1C6F1D6BC10E1B6F05D042C442F139
:1028100001011B8F00D012000501886B4B0E896FE0
:102820008A6B8B6B8C6B8D6B080E8E6F0101376B17
:10283000366B1A0EE66E020EE66EF8EC0EF0E552FE
:10284000E5521E0EE66E030EE66EF8EC0EF0E55253
:10285000E552400EE66E080EE66E050EE66EE66A7E
:10286000030EE66E9EEC0FF0106E050EE15E10504A
:10287000F3CF3EF1F4CF3FF10101406B416B120009
:10288000D9CFE6FFE1CFD9FF0101366B3E513F11B1
:1028900002E1000E08D03EC1E9FF3FC1EAFFEF5060
:1028A000800B01E0010E000945E1FC0EDBCF10F0CA
:1028B0003EC1E9FF3FC1EAFFEE52EF50D88010540D
:1028C00008E23EC1E9FF3FC1EAFFEE52FC0EEFCF46
:1028D000DBFF366BFC0EDB50365D19E23651EA6ADF
:1028E000080FE96E050EEA22EF50E66E3651E76EEC
:1028F000FD0EDBCFE9FFFE0EDBCFEAFFE750E92656
:10290000000EEA22E552E750EF6E362BE3D7400E79
:10291000E66E080EE66E050EE66EE66A030EE66EDD
:102920009EEC0FF0106E050EE15E1050F3CF3EF1FD
:10293000F4CF3FF10101365100D0E552E7CFD9FF86
:102940001200D9CFE6FFE1CFD9FFA09A010137519C
:102950000CE1FD0EDBCF38F1FE0EDBCF39F1FC0EC2
:10296000DBCF3CF1010E3D6F376FA08AE552E7CF18
:10297000D9FF1200D9CFE6FFE1CFD9FF030EE12640
:10298000A09A0101375102E0A08A2FD0DF6AFD0E24
:10299000DBCF06F0FE0EDBCF07F0DE5206C0DEFF17
:1029A00007C0DDFFDD52DF2ADF50106E116AFF0E17
:1029B000101801E1115001E10BD0010EDBCFE9FF4E
:1029C000DB2A020EDBCFEAFF01E3DB2AEF50EBE16B
:1029D000FD0EDBCF38F1FE0EDBCF39F1DFCF3CF15E
:1029E0000101010E3D6F376FA08A030EE15C02E228
:1029F000E16AE552E16EE552E7CFD9FF1200D9CF87
:102A0000E6FFE1CFD9FF030EE126A09A010137517D
:102A100002E0A08A30D0DF6AFD0EDBCF06F0FE0EAA
:102A2000DBCF07F0DE5206C0DEFF07C0DDFFDD5260
:102A3000DF2ADF50106E116AFF0E101801E11150ED
:102A400001E10CD0010EDBCFF6FFDB2A020EDBCF5B
:102A5000F7FF01E3DB2A0800F550EAE1FD0EDBCFCA
:102A600038F1FE0EDBCF39F1DFCF3CF101013D6BD8
:102A7000010E376FA08A030EE15C02E2E16AE552C3
:102A8000E16EE552E7CFD9FF1200D9CFE6FFE1CFE3
:102A9000D9FF020EE126A09A01014051411102E145
:102AA000000E08D040C1E9FF41C1EAFFEF50800BA2
:102AB00001E0010E000902E0A08A87D0030E375D15
:102AC00001E1376B375102E1A08A7FD0020E375DFA
:102AD00016E1E66A000EE66EE66A010EE66E030E89
:102AE000E66E9EEC0FF0106E050EE15E1050F3CF17
:102AF00040F1F4CF41F10101030E376F65D0370586
:102B000063E1400E106E116A3C51105C000E1158CA
:102B100003E2400EDF6E02D03CC1DFFFDF503C5DC0
:102B20003C6F480E3A6F050E3B6F010EDFCFDBFFA7
:102B30003D5117E1010EDB5013E038C1F6FF39C1FA
:102B4000F7FF0800F5503AC1E9FF3BC1EAFFEF6E1D
:102B50003A2B000E3B23382B3923010EDB06EAD734
:102B600015D0010EDB5012E038C1E9FF39C1EAFF90
:102B7000EF503AC1E9FF3BC1EAFFEF6E3A2B000E7E
:102B80003B23382B3923010EDB06EBD73C5108E100
:102B9000400EDF5C03E1020E376F02D0030E376F89
:102BA000DFCFE6FF480EE66E050EE66E010EE66E1E
:102BB000030EE66E9EEC0FF0106E050EE15E1050F7
:102BC000F3CF40F1F4CF41F1A08A020EE15C02E2C2
:0E2BD000E16AE552E16EE552E7CFD9FF12004F
:022BDE001201E2
:102BE000000202000008D8040A00000101020001EE
:102BF00009024300020100C0320904000001020280
:102C0000010005240010010424020205240600012D
:102C100005240100010705820308000209040100E0
:102C2000020A0000000705030240000007058302B6
:102C30004000000403090434034D0069006300727E
:102C4000006F006300680069007000200054006598
:102C500000630068006E006F006C006F0067007911
:102C600000200049006E0063002E0034034300443E
:102C70000043002000520053002D00320033003288
:102C800000200045006D0075006C00610074006953
:102C9000006F006E002000440065006D006F00F0C2
:072CA0002B332C372C6B2CA9
:082CA8002A0EF66E100EF76E05
:102CB000000EF86E00010900F550F66F0900F5509E
:102CC000F76F03E1F66701D03DD00900F550F16FD1
:102CD0000900F550F26F0900F550F36F0900090083
:102CE000F550E96E0900F550EA6E09000900090087
:102CF000F550F46F0900F550F56F09000900F6CFA3
:102D0000F8F0F7CFF9F0F8CFFAF0F1C0F6FFF2C023
:102D1000F7FFF3C0F8FF0001F45302E1F55307E0B9
:102D20000900F550EE6EF407F8E2F507F9D7F8C0A0
:102D3000F6FFF9C0F7FFFAC0F8FF0001F607000E32
:062D4000F75BBFD7120093
:0A2D4600FE0EE3CFE9FFFF0EE3CF1E
:102D5000EAFFE9CFF3FFEACFF4FFFB0EE35003E114
:102D6000FC0EE35009E0FB0EE30602E2FC0EE30674
:0A2D7000FD0EE350EE6EF1D71200E5
:062D7A00036A026A100E5C
:102D8000E76ED89006360736023603360B50025CE3
:102D90000C50035805E30B50025E0C50035A062AF0
:062DA000E72EF0D712003F
:0A2DA600000EF36E00EE00F0080EC0
:102DB00001D81200EA6002D0EE6AFCD7F350E96055
:062DC0001200EE6AFCD7D0
:0A2DC60013EE00F023EE00F0F86AAF
:102DD0000F9C54EC16F0F1EC16F076EC11F0FBD7EA
:022DE0001200DF
:022DE2001200DD
:020000040030CA
:0100000022DD
:010001000EF0
:010002003FBE
:010003001EDE
:010005008179
:010006008178
:010008000FE8
:01000900C036
:01000A000FE6
:01000B00E014
:01000C000FE4
:01000D0040B2
:00000001FF
